{
  "_format": "hh-sol-artifact-1",
  "contractName": "BlitzQuiz",
  "sourceName": "contracts/BlitzQuiz.sol",
  "abi": [
    {
      "anonymous": false,
      "inputs": [
        {
          "indexed": true,
          "internalType": "address",
          "name": "player",
          "type": "address"
        },
        {
          "indexed": false,
          "internalType": "uint256",
          "name": "score",
          "type": "uint256"
        },
        {
          "indexed": false,
          "internalType": "uint256",
          "name": "bestScore",
          "type": "uint256"
        },
        {
          "indexed": false,
          "internalType": "uint256",
          "name": "totalGames",
          "type": "uint256"
        }
      ],
      "name": "ScoreSubmitted",
      "type": "event"
    },
    {
      "inputs": [],
      "name": "getLeaderboard",
      "outputs": [
        {
          "internalType": "address[]",
          "name": "users",
          "type": "address[]"
        },
        {
          "internalType": "uint256[]",
          "name": "bestScores",
          "type": "uint256[]"
        },
        {
          "internalType": "uint256[]",
          "name": "totalGames",
          "type": "uint256[]"
        }
      ],
      "stateMutability": "view",
      "type": "function"
    },
    {
      "inputs": [
        {
          "internalType": "address",
          "name": "user",
          "type": "address"
        }
      ],
      "name": "getPlayer",
      "outputs": [
        {
          "internalType": "uint256",
          "name": "",
          "type": "uint256"
        },
        {
          "internalType": "uint256",
          "name": "",
          "type": "uint256"
        }
      ],
      "stateMutability": "view",
      "type": "function"
    },
    {
      "inputs": [
        {
          "internalType": "address",
          "name": "",
          "type": "address"
        }
      ],
      "name": "players",
      "outputs": [
        {
          "internalType": "uint256",
          "name": "bestScore",
          "type": "uint256"
        },
        {
          "internalType": "uint256",
          "name": "totalGames",
          "type": "uint256"
        }
      ],
      "stateMutability": "view",
      "type": "function"
    },
    {
      "inputs": [
        {
          "internalType": "uint256",
          "name": "score",
          "type": "uint256"
        }
      ],
      "name": "submitScore",
      "outputs": [],
      "stateMutability": "nonpayable",
      "type": "function"
    }
  ],
  "bytecode": "0x608060405234801561001057600080fd5b50610a23806100206000396000f3fe608060405234801561001057600080fd5b506004361061004c5760003560e01c80635c12cd4b146100515780636d763a6e14610082578063aff0b297146100a2578063e2eb41ff146100be575b600080fd5b61006b6004803603810190610066919061061d565b6100ef565b604051610079929190610663565b60405180910390f35b61008a610167565b60405161009993929190610808565b60405180910390f35b6100bc60048036038101906100b79190610880565b6103b8565b005b6100d860048036038101906100d3919061061d565b610596565b6040516100e6929190610663565b60405180910390f35b60008060008060008573ffffffffffffffffffffffffffffffffffffffff1673ffffffffffffffffffffffffffffffffffffffff168152602001908152602001600020604051806040016040529081600082015481526020016001820154815250509050806000015181602001519250925050915091565b6060806060600060028054905090508067ffffffffffffffff8111156101905761018f6108ad565b5b6040519080825280602002602001820160405280156101be5781602001602082028036833780820191505090505b5093508067ffffffffffffffff8111156101db576101da6108ad565b5b6040519080825280602002602001820160405280156102095781602001602082028036833780820191505090505b5092508067ffffffffffffffff811115610226576102256108ad565b5b6040519080825280602002602001820160405280156102545781602001602082028036833780820191505090505b50915060005b818110156103b157600060028281548110610278576102776108dc565b5b9060005260206000200160009054906101000a900473ffffffffffffffffffffffffffffffffffffffff16905060008060008373ffffffffffffffffffffffffffffffffffffffff1673ffffffffffffffffffffffffffffffffffffffff1681526020019081526020016000206040518060400160405290816000820154815260200160018201548152505090508187848151811061031a576103196108dc565b5b602002602001019073ffffffffffffffffffffffffffffffffffffffff16908173ffffffffffffffffffffffffffffffffffffffff1681525050806000015186848151811061036c5761036b6108dc565b5b60200260200101818152505080602001518584815181106103905761038f6108dc565b5b602002602001018181525050505080806103a99061093a565b91505061025a565b5050909192565b60008060003373ffffffffffffffffffffffffffffffffffffffff1673ffffffffffffffffffffffffffffffffffffffff1681526020019081526020016000209050600181600101600082825461040f9190610982565b92505081905550806000015482111561042c578181600001819055505b600160003373ffffffffffffffffffffffffffffffffffffffff1673ffffffffffffffffffffffffffffffffffffffff16815260200190815260200160002060009054906101000a900460ff166105385760018060003373ffffffffffffffffffffffffffffffffffffffff1673ffffffffffffffffffffffffffffffffffffffff16815260200190815260200160002060006101000a81548160ff0219169083151502179055506002339080600181540180825580915050600190039060005260206000200160009091909190916101000a81548173ffffffffffffffffffffffffffffffffffffffff021916908373ffffffffffffffffffffffffffffffffffffffff1602179055505b3373ffffffffffffffffffffffffffffffffffffffff167fc3d569bab9b8a4ed0f3f5808a8a5f9b046ac3e6b9b15607815ef8b40642a13d9838360000154846001015460405161058a939291906109b6565b60405180910390a25050565b60006020528060005260406000206000915090508060000154908060010154905082565b600080fd5b600073ffffffffffffffffffffffffffffffffffffffff82169050919050565b60006105ea826105bf565b9050919050565b6105fa816105df565b811461060557600080fd5b50565b600081359050610617816105f1565b92915050565b600060208284031215610633576106326105ba565b5b600061064184828501610608565b91505092915050565b6000819050919050565b61065d8161064a565b82525050565b60006040820190506106786000830185610654565b6106856020830184610654565b9392505050565b600081519050919050565b600082825260208201905092915050565b6000819050602082019050919050565b6106c1816105df565b82525050565b60006106d383836106b8565b60208301905092915050565b6000602082019050919050565b60006106f78261068c565b6107018185610697565b935061070c836106a8565b8060005b8381101561073d57815161072488826106c7565b975061072f836106df565b925050600181019050610710565b5085935050505092915050565b600081519050919050565b600082825260208201905092915050565b6000819050602082019050919050565b61077f8161064a565b82525050565b60006107918383610776565b60208301905092915050565b6000602082019050919050565b60006107b58261074a565b6107bf8185610755565b93506107ca83610766565b8060005b838110156107fb5781516107e28882610785565b97506107ed8361079d565b9250506001810190506107ce565b5085935050505092915050565b6000606082019050818103600083015261082281866106ec565b9050818103602083015261083681856107aa565b9050818103604083015261084a81846107aa565b9050949350505050565b61085d8161064a565b811461086857600080fd5b50565b60008135905061087a81610854565b92915050565b600060208284031215610896576108956105ba565b5b60006108a48482850161086b565b91505092915050565b7f4e487b7100000000000000000000000000000000000000000000000000000000600052604160045260246000fd5b7f4e487b7100000000000000000000000000000000000000000000000000000000600052603260045260246000fd5b7f4e487b7100000000000000000000000000000000000000000000000000000000600052601160045260246000fd5b60006109458261064a565b91507fffffffffffffffffffffffffffffffffffffffffffffffffffffffffffffffff82036109775761097661090b565b5b600182019050919050565b600061098d8261064a565b91506109988361064a565b92508282019050808211156109b0576109af61090b565b5b92915050565b60006060820190506109cb6000830186610654565b6109d86020830185610654565b6109e56040830184610654565b94935050505056fea2646970667358221220196131426442e8ca5b73479eeceb9683e4e2ecd4a37b8debd42490b8fe878ff164736f6c63430008140033",
  "linkReferences": {},
  "deployedLinkReferences": {}
}